{
    "contractName": "SimpleStorage",
    "abi": [
        {
            "inputs": [
                {
                    "internalType": "string",
                    "name": "_name",
                    "type": "string"
                },
                {
                    "internalType": "uint256",
                    "name": "_favoriteNumber",
                    "type": "uint256"
                }
            ],
            "name": "addPerson",
            "outputs": [],
            "stateMutability": "nonpayable",
            "type": "function"
        },
        {
            "inputs": [
                {
                    "internalType": "string",
                    "name": "",
                    "type": "string"
                }
            ],
            "name": "nameToFavoriteNumber",
            "outputs": [
                {
                    "internalType": "uint256",
                    "name": "",
                    "type": "uint256"
                }
            ],
            "stateMutability": "view",
            "type": "function"
        },
        {
            "inputs": [
                {
                    "internalType": "uint256",
                    "name": "",
                    "type": "uint256"
                }
            ],
            "name": "people",
            "outputs": [
                {
                    "internalType": "uint256",
                    "name": "favoriteNumber",
                    "type": "uint256"
                },
                {
                    "internalType": "string",
                    "name": "name",
                    "type": "string"
                }
            ],
            "stateMutability": "view",
            "type": "function"
        },
        {
            "inputs": [],
            "name": "retrieve",
            "outputs": [
                {
                    "internalType": "uint256",
                    "name": "",
                    "type": "uint256"
                }
            ],
            "stateMutability": "view",
            "type": "function"
        },
        {
            "inputs": [
                {
                    "internalType": "uint256",
                    "name": "_favoriteNumber",
                    "type": "uint256"
                }
            ],
            "name": "store",
            "outputs": [],
            "stateMutability": "nonpayable",
            "type": "function"
        }
    ],
    "bytecode": "608060405234801561001057600080fd5b50610519806100206000396000f3fe608060405234801561001057600080fd5b50600436106100575760003560e01c80632e64cec11461005c5780636057361d146100765780636f760f41146100955780638bab8dd51461013d5780639e7a13ad146101e3575b600080fd5b61006461027f565b60408051918252519081900360200190f35b6100936004803603602081101561008c57600080fd5b5035610286565b005b610093600480360360408110156100ab57600080fd5b8101906020810181356401000000008111156100c657600080fd5b8201836020820111156100d857600080fd5b803590602001918460018302840111640100000000831117156100fa57600080fd5b91908080601f016020809104026020016040519081016040528093929190818152602001838380828437600092019190915250929550509135925061028b915050565b6100646004803603602081101561015357600080fd5b81019060208101813564010000000081111561016e57600080fd5b82018360208201111561018057600080fd5b803590602001918460018302840111640100000000831117156101a257600080fd5b91908080601f016020809104026020016040519081016040528093929190818152602001838380828437600092019190915250929550610379945050505050565b610200600480360360208110156101f957600080fd5b5035610396565b6040518083815260200180602001828103825283818151815260200191508051906020019080838360005b8381101561024357818101518382015260200161022b565b50505050905090810190601f1680156102705780820380516001836020036101000a031916815260200191505b50935050505060405180910390f35b6000545b90565b600055565b604080518082019091528181526020808201848152600280546001810182556000829052845191027f405787fa12a823e0f2b7631cc41b3ba8828b3321ca811111fa75cd3aa3bb5ace810191825591518051919361030e937f405787fa12a823e0f2b7631cc41b3ba8828b3321ca811111fa75cd3aa3bb5acf019291019061044b565b505050806003836040518082805190602001908083835b602083106103445780518252601f199092019160209182019101610325565b51815160209384036101000a600019018019909216911617905292019485525060405193849003019092209290925550505050565b805160208183018101805160038252928201919093012091525481565b600281815481106103a357fe5b60009182526020918290206002918202018054600180830180546040805193821615610100026000190190911695909504601f81018790048702830187019095528482529195509193919290918301828280156104415780601f1061041657610100808354040283529160200191610441565b820191906000526020600020905b81548152906001019060200180831161042457829003601f168201915b5050505050905082565b828054600181600116156101000203166002900490600052602060002090601f016020900481019282601f1061048c57805160ff19168380011785556104b9565b828001600101855582156104b9579182015b828111156104b957825182559160200191906001019061049e565b506104c59291506104c9565b5090565b61028391905b808211156104c557600081556001016104cf56fea2646970667358221220680a42ffc861fd9d3cb69c89ba5aa5c88c897aaec1b3e85b152cd559e1ce8eda64736f6c63430006000033",
    "sourcePath": "c:/Users/EdSofta-Samuel/Documents/GitHub/web3App/web3_py_simple_storage/SimpleStorage.sol",
    "compiler": {
        "name": "solc",
        "version": "0.6.0+commit.26b70077"
    },
    "functionHashes": {
        "addPerson(string,uint256)": "6f760f41",
        "nameToFavoriteNumber(string)": "8bab8dd5",
        "people(uint256)": "9e7a13ad",
        "retrieve()": "2e64cec1",
        "store(uint256)": "6057361d"
    },
    "gasEstimates": {
        "creation": {
            "codeDepositCost": "261000",
            "executionCost": "300",
            "totalCost": "261300"
        },
        "external": {
            "addPerson(string,uint256)": "infinite",
            "nameToFavoriteNumber(string)": "infinite",
            "people(uint256)": "infinite",
            "retrieve()": "977",
            "store(uint256)": "20189"
        }
    }
}